:020000040800F2
:10000000000002209D1D0008B9080008BB08000878
:10001000BD080008BF080008C10800080000000073
:10002000000000000000000000000000C3080008FD
:10003000C508000800000000C7080008C90800083B
:10004000ED1D0008ED1D0008ED1D0008ED1D000868
:10005000ED1D0008ED1D0008ED1D0008ED1D000858
:10006000ED1D0008ED1D0008ED1D0008ED1D000848
:10007000ED1D0008ED1D0008ED1D0008ED1D000838
:10008000ED1D0008ED1D0008ED1D0008ED1D000828
:10009000ED1D0008ED1D0008ED1D0008ED1D000818
:1000A000ED1D0008ED1D0008ED1D0008ED1D000808
:1000B000ED1D0008ED1D0008ED1D0008ED1D0008F8
:1000C000ED1D0008ED1D0008ED1D0008ED1D0008E8
:1000D000ED1D0008ED1D0008ED1D0008ED1D0008D8
:1000E000ED1D0008ED1D0008ED1D0008ED1D0008C8
:1000F000ED1D0008ED1D0008ED1D0008ED1D0008B8
:10010000ED1D0008ED1D0008ED1D0008ED1D0008A7
:10011000ED1D0008ED1D0008ED1D0008D1080008C8
:10012000ED1D0008ED1D0008ED1D0008ED1D000887
:10013000ED1D0008ED1D0008ED1D0008ED1D000877
:10014000ED1D0008ED1D0008ED1D0008ED1D000867
:10015000ED1D0008ED1D0008ED1D0008ED1D000857
:10016000ED1D0008ED1D0008ED1D0008ED1D000847
:10017000ED1D0008ED1D0008ED1D00080000000049
:08018000ED1D0008ED1D000853
:1001900010B5054C237833B9044B13B10448AFF3C1
:1001A00000800123237010BD7000002000000000BB
:1001B0004027000808B5034B1BB103490348AFF3C0
:1001C000008008BD000000007400002040270008E7
:1001D00001F0FF01102A2BDB10F0070F08D010F8F8
:1001E000013B013A8B422DD010F0070F42B3F6D1FC
:1001F000F0B441EA012141EA014122F007047FF015
:1002000000070023F0E80256083C85EA010586EA6B
:10021000010685FA47F5A3FA87F586FA47F6A5FAA7
:1002200087F68EB9EED1F0BC01F0FF0102F00702B3
:1002300032B110F8013B013A83EA010313B1F8D15E
:100240000020704701387047002D06BF354603383F
:10025000073815F0010F07D1013015F4807F02BF78
:10026000013015F4C03F0130F0BC0138704700BFC9
:1002700053B94AB9002908BF00281CBF4FF0FF310D
:100280004FF0FF3000F074B9ADF1080C6DE904CE09
:1002900000F006F8DDF804E0DDE9022304B0704761
:1002A0002DE9F047089D04468E46002B4DD18A4229
:1002B000944669D9B2FA82F252B101FA02F3C2F15C
:1002C000200120FA01F10CFA02FC41EA030E9440ED
:1002D0004FEA1C48210CBEFBF8F61FFA8CF708FB0E
:1002E00016E341EA034306FB07F199420AD91CEBE6
:1002F000030306F1FF3080F01F81994240F21C8118
:10030000023E63445B1AA4B2B3FBF8F008FB10335F
:1003100044EA034400FB07F7A7420AD91CEB040494
:1003200000F1FF3380F00A81A74240F20781644464
:10033000023840EA0640E41B00261DB1D4400023E9
:10034000C5E900433146BDE8F0878B4209D9002D4D
:1003500000F0EF800026C5E9000130463146BDE8D7
:10036000F087B3FA83F6002E4AD18B4202D3824241
:1003700000F2F980841A61EB030301209E46002DF0
:10038000E0D0C5E9004EDDE702B9FFDEB2FA82F245
:10039000002A40F09280A1EB0C014FEA1C471FFAA3
:1003A0008CFE0126200CB1FBF7F307FB131140EA8A
:1003B00001410EFB03F0884208D91CEB010103F157
:1003C000FF3802D2884200F2CB804346091AA4B219
:1003D000B1FBF7F007FB101144EA01440EFB00FEED
:1003E000A64508D91CEB040400F1FF3102D2A64552
:1003F00000F2BB800846A4EB0E0440EA03409CE7F1
:10040000C6F12007B34022FA07FC4CEA030C20FA9D
:1004100007F401FA06F31C43F9404FEA1C4900FABD
:1004200006F3B1FBF9F8200C1FFA8CFE09FB18113A
:1004300040EA014108FB0EF0884202FA06F20BD9AD
:100440001CEB010108F1FF3A80F08880884240F2FD
:100450008580A8F102086144091AA4B2B1FBF9F041
:1004600009FB101144EA014100FB0EFE8E4508D93C
:100470001CEB010100F1FF346CD28E456AD90238C1
:10048000614440EA0840A0FB0294A1EB0E01A142A6
:10049000C846A64656D353D05DB1B3EB080261EB14
:1004A0000E0101FA07F722FA06F3F1401F43C5E9EE
:1004B000007100263146BDE8F087C2F12003D84024
:1004C0000CFA02FC21FA03F3914001434FEA1C4766
:1004D0001FFA8CFEB3FBF7F007FB10360B0C43EA58
:1004E000064300FB0EF69E4204FA02F408D91CEB08
:1004F000030300F1FF382FD29E422DD90238634406
:100500009B1B89B2B3FBF7F607FB163341EA0341A5
:1005100006FB0EF38B4208D91CEB010106F1FF38F4
:1005200016D28B4214D9023E6144C91A46EA0046EB
:1005300038E72E46284605E70646E3E61846F8E67D
:100540004B45A9D2B9EB020864EB0C0E0138A3E7C6
:100550004646EAE7204694E74046D1E7D0467BE7A7
:10056000023B614432E7304609E76444023842E71F
:10057000704700BFF0B589B000240394049405943B
:10058000069407940094204B1A6B42F004021A63FD
:100590001A6B02F004020092009A01941A6B42F066
:1005A00001021A631A6B02F001020192019A02948D
:1005B0001A6B42F008021A631B6B03F008030293E4
:1005C000029B124F22464FF48051384601F042FA06
:1005D0000F4D22468021284601F03CFA4FF480530B
:1005E0000393012604960594069403A9384601F066
:1005F0003FF98023039304960594069403A92846A3
:1006000001F036F909B0F0BD0038024000000240A8
:10061000000C024008B50268044B9A4200D008BDA5
:100620004FF48051024801F01BFAF8E70020004027
:1006300000000240044B1B685860034B1B681B689A
:1006400013F0800FF9D07047E401002010B5044684
:1006500003E014F8010BFFF7EDFF23782BB10A2B11
:10066000F7D10D20FFF7E6FFF3E710BD0FB410B58B
:1006700082B004AA52F8041B0192064C204601F0F5
:10068000F9FB2046FFF7E2FF02B0BDE8104004B0DE
:10069000704700BF8C00002072B6FEE700B583B043
:1006A0000023009301930E480E4A026042F2CF02EB
:1006B0004260836041F28732C260836100F0DCFBFC
:1006C00050B90023009301936946054800F064FD8A
:1006D00020B903B05DF804FBFFF7DEFFFFF7DCFF96
:1006E0009C0100200014004008B50948094B036034
:1006F00042F2CF0343600023836041F28732C2603D
:100700000361836100F0B8FB00B908BDFFF7C4FFC7
:100710000C0100200020004000B58BB0002308939E
:10072000099301930293039304930593069307930C
:100730001748184A026040F2473242608360312213
:10074000C2600361836100F0C3FBD8B90023089342
:10075000099308A90E4800F01FFDA8B96023019372
:100760006323029300230393059304220DEB0201FC
:10077000074800F011FC48B9054800F019F90BB022
:100780005DF804FBFFF788FFFFF786FFFFF784FFA4
:10079000540100200004004008B50A480A4B0360D9
:1007A0004FF4E133436000238360C36003610C2294
:1007B00042618361C36101F0C1FA00B908BDFFF76E
:1007C0006BFF00BFE40100200010014000B595B0B0
:1007D0003022002108A801F02FFB0023039304938B
:1007E00005930693079301931F4A116C41F08051C2
:1007F0001164126C02F080520192019A02931B4A1A
:10080000116841F480411160126802F48042029242
:10081000029A0222089201210B9110210C910E9252
:100820000F9308231093A823119312920423139378
:1008300008A800F0F9FC98B90F230393022304934E
:10084000002305934FF4A05306934FF4805307936E
:10085000052103A800F036FF20B915B05DF804FBB0
:10086000FFF71AFFFFF718FF003802400070004042
:1008700008B501F091F9FFF7A9FFFFF77BFEFFF73D
:100880000DFFFFF731FFFFF747FFFFF785FF074831
:1008900000F088F90421064800F0FCFB0548FFF74A
:1008A000E5FE4FF47A7001F0A3F9F7E70C010020A0
:1008B0005401002058270008FEE7FEE7FEE7FEE7A8
:1008C000FEE770477047704708B501F07FF908BD33
:1008D00008B5024800F0AEF908BD00BF9C01002039
:1008E00082B0002100910B4B5A6C42F480425A6452
:1008F0005A6C02F480420092009A01911A6C42F004
:1009000080521A641B6C03F080530193019B02B068
:10091000704700BF003802400268094B9A4200D07D
:10092000704782B000230193064B1A6C42F002021A
:100930001A641B6C03F002030193019B02B0704721
:10094000000400400038024000B583B00368154A37
:10095000934205D0144A934216D003B05DF804FBCD
:1009600000210091114B1A6C42F020021A641B6C9A
:1009700003F020030093009B0A46372001F08CF817
:10098000372001F0C1F8E8E700230193074B1A6C08
:1009900042F480721A641B6C03F480730193019B10
:1009A000DBE700BF00140040002000400038024098
:1009B00000B587B00023019302930393049305933A
:1009C00002680E4B9A4202D007B05DF804FB002388
:1009D00000930B4B1A6B42F004021A631B6B03F07B
:1009E00004030093009B8023019302230293059349
:1009F00001A9044800F03CFFE6E700BF0004004006
:100A0000003802400008024000B589B0002303937B
:100A10000493059306930793026803F1804303F55B
:100A200088339A4202D009B05DF804FB002101919D
:100A300003F594335A6C42F010025A645A6C02F077
:100A400010020192019A02911A6B42F001021A639C
:100A50001B6B03F001030293029B4FF4C0630393EB
:100A600002230493032306930723079303A9024851
:100A700000F0FEFED7E700BF0000024030B4036A7A
:100A800023F001030362036A4268846924F073045B
:100A90000D682C4323F0020C8B6843EA0C03104DC5
:100AA000A84203D005F58065A84205D123F00803CC
:100AB000CD682B4323F00403094DA84203D005F56C
:100AC0008065A84205D122F440724D692A438D69A0
:100AD0002A43426084614A684263036230BC7047C3
:100AE0000000014030B4036A23F480730362036A98
:100AF0004268C46924F0730C0C6844EA0C0523F4C2
:100B000000738C6843EA0423114CA04203D004F51F
:100B10008064A04206D123F40063CC6843EA042336
:100B200023F480630A4CA04203D004F58064A04201
:100B300007D122F440524C6942EA04128C6942EA1D
:100B400004124260C5614A68C263036230BC7047E8
:100B50000000014030B4036A23F480530362036A47
:100B60004468C26922F4E6420D6842EA052223F491
:100B700000538D6843EA0533094DA84203D005F5BB
:100B80008065A84204D124F480444D6944EA851468
:100B90004460C2614A680264036230BC704700BFAF
:100BA0000000014090F83D30DBB2012B37D1022329
:100BB00080F83D300268D36843F00103D3600368D6
:100BC000194A934220D0B3F1804F1DD0A2F57C4248
:100BD000934219D002F58062934215D002F58062EB
:100BE000934211D002F5784293420DD002F5705233
:100BF000934209D0A2F59432934205D01A6842F08C
:100C000001021A60002070479A6802F00702062A63
:100C100007D01A6842F001021A60002070470120D4
:100C200070470020704700BF0000014070477047C8
:100C30007047704710B5044603681A6912F0020F36
:100C400011D0DA6812F0020F0DD06FF002021A61B3
:100C50000123037703689B6913F0030F70D0FFF73C
:100C6000E6FF0023237723681A6912F0040F12D0DD
:100C7000DA6812F0040F0ED06FF004021A6102233A
:100C8000237723689B6913F4407F5FD02046FFF7EA
:100C9000CEFF0023237723681A6912F0080F12D0C1
:100CA000DA6812F0080F0ED06FF008021A61042300
:100CB00023772368DB6913F0030F4ED02046FFF73C
:100CC000B6FF0023237723681A6912F0100F12D0A1
:100CD000DA6812F0100F0ED06FF010021A610823BC
:100CE00023772368DB6913F4407F3DD02046FFF76C
:100CF0009EFF0023237723681A6912F0010F03D0A7
:100D0000DA6812F0010F36D123681A6912F0800FE9
:100D100003D0DA6812F0800F34D123681A6912F018
:100D2000400F03D0DA6812F0400F32D123681A69FD
:100D300012F0200F03D0DA6812F0200F30D110BD6E
:100D4000FFF774FF2046FFF773FF8AE72046FFF79F
:100D50006DFF2046FFF76CFF9BE72046FFF766FF1D
:100D60002046FFF765FFACE72046FFF75FFF204610
:100D7000FFF75EFFBDE76FF001021A612046FFF743
:100D800049FCC1E76FF080021A61204600F04BFA7F
:100D9000C3E76FF040021A612046FFF74AFFC5E73C
:100DA0006FF020021A61204600F03CFAC7E700000D
:100DB0000368304A904212D0B0F1804F0FD0A2F5B4
:100DC0007C4290420BD002F58062904207D002F53F
:100DD0008062904203D002F57842904203D123F022
:100DE00070034A681343234A90422AD0B0F1804FDF
:100DF00027D0A2F57C42904223D002F58062904237
:100E00001FD002F5806290421BD002F578429042DA
:100E100017D002F57052904213D002F580629042D2
:100E20000FD002F5806290420BD0A2F5983290422A
:100E300007D002F58062904203D002F580629042B2
:100E400003D123F44073CA68134323F080034A6933
:100E5000134303608B68C3620B688362054B98423F
:100E600003D003F58063984201D10B69036301232A
:100E7000436170470000014040B310B5044690F84C
:100E80003D30F3B1022384F83D30214651F8040B84
:100E9000FFF78EFF012384F8463084F83E3084F853
:100EA0003F3084F8403084F8413084F8423084F890
:100EB000433084F8443084F8453084F83D300020D5
:100EC00010BD80F83C30FFF73FFDDBE701207047A5
:100ED00040B310B5044690F83D30F3B1022384F8D6
:100EE0003D30214651F8040BFFF762FF012384F8DF
:100EF000463084F83E3084F83F3084F8403084F83F
:100F0000413084F8423084F8433084F8443084F827
:100F1000453084F83D30002010BD80F83C30FFF7AC
:100F2000FBFCDBE70120704730B4036A23F01003B9
:100F30000362036A4468826922F4E6420D6842EA69
:100F4000052223F020038D6843EA0513114DA842C2
:100F500003D005F58065A84206D123F08003CD6853
:100F600043EA051323F040030A4DA84203D005F5D8
:100F70008065A84207D124F440644D6944EA8504A1
:100F80008D6944EA8504446082614A688263036231
:100F900030BC70470000014038B590F83C30012B60
:100FA00066D004460D46012380F83C300C2A5AD8FE
:100FB000DFE802F0075959591B5959593059595905
:100FC00044000068FFF75AFD2268936943F0080364
:100FD00093612268936923F0040393612268936903
:100FE00029690B43936100203EE00068FFF79CFFF6
:100FF0002268936943F4006393612268936923F440
:101000008063936122689369296943EA01239361AC
:10101000002029E00068FFF765FD2268D36943F0EE
:101020000803D3612268D36923F00403D3612268E3
:10103000D36929690B43D361002015E00068FFF7ED
:1010400089FD2268D36943F40063D3612268D369C0
:1010500023F48063D3612268D369296943EA0123B9
:10106000D361002000E00120002384F83C3038BD2B
:101070000220FCE701F01F01012303FA01FC036ACF
:1010800023EA0C030362036A02FA01F10B430362D1
:101090007047000010B504460846002942D194F874
:1010A0003E30DBB2013B18BF0123002B6ED100287C
:1010B00051D1022384F83E30012201462068FFF717
:1010C000D9FF2368334A934203D002F580629342EA
:1010D00003D15A6C42F400425A6423682D4A934269
:1010E00049D0B3F1804F46D0A2F57C42934242D022
:1010F00002F5806293423ED002F5806293423AD07C
:1011000002F57842934236D002F57052934232D0C3
:10111000A2F5943293422ED01A6842F001021A606E
:10112000002032E0042908D008290DD094F841307D
:10113000DBB2013B18BF0123B7E794F83F30DBB2C5
:10114000013B18BF0123B0E794F84030DBB2013B0C
:1011500018BF0123A9E7042805D0082807D00223D7
:1011600084F84130A8E7022384F83F30A4E7022343
:1011700084F84030A0E79A6802F00702062A07D0F8
:101180001A6842F001021A60002010BD0120FCE73D
:101190000020FAE70000014090F83C30012B3DD0E0
:1011A00010B4012380F83C30022380F83D300368FE
:1011B0005A689C6822F0700C0A6842EA0C025A6075
:1011C0000368174A93421AD0B3F1804F17D0A2F5A3
:1011D0007C42934213D002F5806293420FD002F515
:1011E000806293420BD002F57842934207D002F519
:1011F0007052934203D0A2F59432934204D124F06A
:1012000080044A6814439C60012380F83D30002329
:1012100080F83C3018465DF8044B70470220704758
:101220000000014070477047002800F0E08170B571
:1012300082B00446036813F0010F3BD09F4B9B68BC
:1012400003F00C03042B2CD09C4B9B6803F00C0385
:10125000082B21D06368B3F5803F4FD0B3F5A02FA2
:1012600052D0964B1A6822F480321A601A6822F41F
:1012700080221A606368002B50D000F0B3FC054652
:101280008E4B1B6813F4003F14D100F0ABFC401BE5
:101290006428F5D90320B1E1884B5B6813F4800F13
:1012A000D8D0864B1B6813F4003F03D06368002B33
:1012B00000F09F81236813F0020F54D07F4B9B688E
:1012C00013F00C0F3ED07D4B9B6803F00C03082BF2
:1012D00033D0E368002B68D0794B01221A6000F00C
:1012E00081FC0546754B1B6813F0020F54D100F0CA
:1012F00079FC401B0228F5D903207FE16F4A13686F
:1013000043F480331360B5E76C4B1A6842F48022D3
:101310001A601A6842F480321A60ABE700F062FC8F
:101320000546664B1B6813F4003FC3D000F05AFC1F
:10133000401B6428F5D9032060E1604B5B6813F41F
:10134000800FC6D15D4B1B6813F0020F03D0E3681A
:10135000012B40F05081594A136823F0F8032169AA
:1013600043EAC1031360236813F0080F42D0636996
:101370006BB3534B0122C3F8802E00F033FC0546BB
:101380004E4B5B6F13F0020F34D100F02BFC401B6F
:101390000228F5D9032031E1484A136823F0F80305
:1013A000216943EAC1031360DDE7454B00221A605F
:1013B00000F018FC0546414B1B6813F0020FD2D019
:1013C00000F010FC401B0228F5D9032016E13C4B2D
:1013D0000022C3F8802E00F005FC0546374B5B6FFA
:1013E00013F0020F06D000F0FDFB401B0228F5D9D8
:1013F000032003E1236813F0040F77D02F4B1B6CFD
:1014000013F0805F33D1002301932C4B1A6C42F010
:1014100080521A641B6C03F080530193019B0125D9
:10142000284B1B6813F4807F23D0A368012B34D092
:10143000052B38D0214B1A6F22F001021A671A6F60
:1014400022F004021A67A368002B3DD000F0CAFB0B
:1014500006461A4B1B6F13F0020F46D100F0C2FB79
:10146000801B41F288339842F3D90320C6E000255F
:10147000D6E7144A136843F48073136000F0B2FB9C
:101480000646104B1B6813F4807FCED100F0AAFBF8
:10149000801B0228F5D90320B0E0084A136F43F0FF
:1014A00001031367CFE7054B1A6F42F004021A6776
:1014B0001A6F42F001021A67C5E700BF0038024008
:1014C000000047420070004000F08CFB0646524B83
:1014D0001B6F13F0020F08D000F084FB801B41F259
:1014E00088339842F3D9032088E0EDB9A369002B33
:1014F00000F08380484A926802F00C02082A51D01A
:10150000022B17D0454B00221A6600F06BFB0446F5
:10151000414B1B6813F0007F42D000F063FB001BBF
:101520000228F5D9032069E03B4A136C23F080536D
:101530001364DBE7394B00221A6600F053FB0546C3
:10154000354B1B6813F0007F06D000F04BFB401BAF
:101550000228F5D9032051E0E369226A1343626A45
:1015600043EA8213A26A5208013A43EA0243E26A5A
:1015700043EA0263284A5360284B01221A6600F0AE
:1015800031FB0446244B1B6813F0007F06D100F0AA
:1015900029FB001B0228F5D903202FE000202DE0B5
:1015A00000202BE0012B2BD01B4B5B6803F4800148
:1015B000E269914226D103F03F02216A8A4223D197
:1015C000616A47F6C0721A40B2EB811F1ED103F464
:1015D0004031A26A5208013AB1EB024F18D103F030
:1015E0007063E26AB3EB026F14D1002006E00120C1
:1015F0007047012002E0012000E0002002B070BD31
:101600000120FBE70120F9E70120F7E70120F5E7DA
:101610000120F3E70120F1E70038024000004742D3
:1016200008B5254B9B6803F00C03042B3FD0082B17
:101630003FD1214B5A6802F03F025B6813F4800FE0
:1016400012D01D4B5968C1F388111C480023A1FB1F
:101650000001FEF70DFE184B5B68C3F30143013335
:101660005B00B0FBF3F025E0134B5968C1F3881C15
:101670004FEA4C11B1EB0C006EEB0E0E4FEA8E13DD
:1016800043EA90638101091A63EB0E03DB0043EA2E
:101690005173C90011EB0C0C43F1000399020023B4
:1016A0004FEA8C2041EA9C51FEF7E2FDD3E7034864
:1016B00000E0034808BD00BF0038024040787D01CB
:1016C0000024F400002800F09B8070B50D4604460D
:1016D0004F4B1B6803F007038B4208D2CBB24C4A36
:1016E0001370136803F007038B4240F08B8023686C
:1016F00013F0020F17D013F0040F04D0454A93687B
:1017000043F4E0539360236813F0080F04D0414A78
:10171000936843F4604393603E4A936823F0F00378
:10172000A1680B439360236813F0010F32D0636804
:10173000012B21D09A1E012A25D9364A126812F0AF
:10174000020F61D033498A6822F0030213438B6091
:1017500000F048FA06462F4B9B6803F00C036268C2
:10176000B3EB820F16D000F03DFA801B41F28833B4
:101770009842F0D9032042E0264A126812F4003F52
:10178000E0D101203BE0234A126812F0007FD9D15A
:10179000012034E01E4B1B6803F00703AB4207D95E
:1017A000EAB21B4B1A701B6803F00703AB422DD142
:1017B000236813F0040F06D0164A936823F4E0530D
:1017C000E1680B439360236813F0080F07D0114AB8
:1017D000936823F46043216943EAC1039360FFF7F0
:1017E0001FFF0C4B9B68C3F303130B4AD35CD84019
:1017F0000A4B18600A4B186800F0A8F9002070BD69
:10180000012070470120FAE70120F8E70120F6E700
:10181000003C024000380240602700080800002019
:1018200004000020014B1868704700BF080000202A
:1018300008B5FFF7F7FF044B9B68C3F38223034A05
:10184000D35CD84008BD00BF0038024070270008B4
:1018500008B5FFF7E7FF044B9B68C3F34233034A25
:10186000D35CD84008BD00BF003802407027000894
:1018700000230F2B00F2E48070B582B060E0856831
:101880005E000324B44025EA0405CC68B4402C4330
:101890008460456825EA02054C68C4F300129A404A
:1018A0002A4342605AE0DC08083450F8246003F010
:1018B000070295000F22AA4026EA020E0A69AA40F2
:1018C00042EA0E0240F824205CE0072200E00022F9
:1018D00002FA0EF22A4302345A4D45F824205A4A9D
:1018E00014686FEA0C0224EA0C054E6816F4803F77
:1018F00001D04CEA0405544C2560646802EA0405F2
:101900004E6816F4003F01D04CEA04054E4C656069
:10191000A46802EA04054E6816F4801F01D04CEA60
:101920000405494CA560E46822404D6815F4001F89
:1019300001D04CEA0402444CE26001330F2B7DD805
:1019400001229A400C6804EA020C32EA0404F4D141
:101950004C6804F00304013C012C90D94A6802F061
:101960000302032A09D0C4685D000322AA4024EAC6
:1019700002048A68AA402243C2604A6802F0030255
:10198000022A90D004684FEA430E032202FA0EF2B4
:1019900024EA02044A6802F0030202FA0EF2224329
:1019A00002604A6812F4403FC7D000220192274AE1
:1019B000546C44F480445464526C02F480420192AA
:1019C000019A9C08A51C1F4A52F8255003F00302F7
:1019D0004FEA820E0F2202FA0EF225EA02051C4A95
:1019E00090423FF474AF02F5806290421AD002F543
:1019F0008062904218D002F58062904216D002F5C3
:101A00008062904214D002F58062904212D002F5BA
:101A10008062904210D002F5806290423FF455AF50
:101A2000082255E7012253E7022251E703224FE73C
:101A300004224DE705224BE7062249E702B070BDBC
:101A4000704700BF00380140003C014000380240B0
:101A5000000002400AB1816170470904816170474A
:101A6000436901EA030221EA030141EA024181617B
:101A700070470000074AD36823F4E0631B041B0C83
:101A8000000200F4E060034343F0BF6343F400331B
:101A9000D360704700ED00E000B5194BDB68C3F37D
:101AA0000223C3F1070CBCF1040F28BF4FF0040C54
:101AB00003F1040EBEF1060F18D9033B4FF0FF3EB1
:101AC0000EFA0CFC21EA0C0199400EFA03F322EA0B
:101AD0000303194300280BDB0901C9B200F1604080
:101AE00000F5614080F800135DF804FB0023E5E792
:101AF00000F00F000901C9B2024B1954F4E700BF0E
:101B000000ED00E014ED00E0002807DB00F01F020C
:101B1000400901239340024A42F82030704700BF39
:101B200000E100E00138B0F1807F0BD24FF0E023FC
:101B30005861054AF02182F823100020986107229D
:101B40001A6170470120704700ED00E010B50446AF
:101B50000E4B18784FF47A73B3FBF0F30C4A10680D
:101B6000B0FBF3F0FFF7DEFF68B90F2C01D90120BD
:101B70000AE0002221464FF0FF30FFF78DFF054BB2
:101B80001C60002000E0012010BD00BF000000200C
:101B9000080000200400002008B50B4B1A6842F42E
:101BA00000721A601A6842F480621A601A6842F47D
:101BB00080721A600320FFF75DFF0F20FFF7C6FF5A
:101BC000FEF78EFE002008BD003C0240034A11686B
:101BD000034B1B780B441360704700BF28020020A2
:101BE00000000020014B1868704700BF2802002049
:101BF00038B50446FFF7F6FF0546B4F1FF3F02D0C3
:101C0000044B1B781C44FFF7EDFF401BA042FAD3A6
:101C100038BD00BF00000020034AD2F8883043F4EA
:101C20007003C2F88830704700ED00E038B5044614
:101C30000268136923F44053C1680B43136183683E
:101C40000269134342691343C2691A430168CB68AE
:101C500023F4164323F00C031343CB60026853694B
:101C600023F4407381690B4353610368314A934203
:101C700006D002F58062934202D0FFF7D9FD01E061
:101C8000FFF7E6FDE369B3F5004F29D00021031803
:101C900049411B1841F10001C90041EA5371DB00C1
:101CA000181863684FEA83024FEA937341F1000109
:101CB000FEF7DEFA204DA5FB00325109642303FB39
:101CC00011031B013233A5FB03235B0903F0F00270
:101CD00002EB011203F00F03216813448B6038BD3F
:101CE0000023021843EB0301121841F10001C9005F
:101CF00041EA5271D200101841F100016268921855
:101D00005B41FEF7B5FA0C4DA5FB00325109642387
:101D100003FB1103DB003233A5FB03235B095A00ED
:101D200002F4F87202EB011203F007032168134476
:101D30008B60D4E7001001401F85EB5158B310B5FC
:101D4000044690F83D300BB3242384F83D302268DC
:101D5000D36823F40053D3602046FFF767FF22685F
:101D6000136923F4904313612268536923F02A0313
:101D700053612268D36843F40053D3600020206489
:101D8000202384F83D3084F83E3010BD80F83C308C
:101D9000FEF73AFED8E7012070470000DFF834D0A4
:101DA0000D480E490E4A002302E0D458C4500433B3
:101DB000C4188C42F9D30B4A0B4C002301E013608A
:101DC0000432A242FBD3FFF727FF00F011F8FEF721
:101DD0004FFD70470000022000000020700000202E
:101DE000BC2700087000002040020020FEE7000031
:101DF00070B50D4D0D4C641BA4100026A64209D1F0
:101E00000B4D0C4C00F09CFC641BA4100026A64259
:101E100005D170BD55F8043B98470136EEE755F8FB
:101E2000043B98470136F2E7B4270008B4270008BE
:101E3000B4270008B827000802440346934200D1A3
:101E4000704703F8011BF9E700B59BB000910491BE
:101E50006FF000410591029105490391694600F038
:101E60006FF8009B00221A701BB05DF804FB00BFE6
:101E70000802FFFF13460A46014602480068FFF7C2
:101E8000E3BF00BF0C0000202DE9F0478E689E42A2
:101E900082460C4690461F4638D88A8912F4906FC5
:101EA00032D025680969A5EB0109656905EB45058F
:101EB00005EBD57501334B446D109D4238BF1D466F
:101EC000530531D5294600F063FB064650B90C2373
:101ED000CAF80030A38943F04003A3814FF0FF30DC
:101EE000BDE8F08721694A4600F0BEFAA38923F4D1
:101EF000906343F08003A381266165614E44A5EBA6
:101F000009052660A5603E46BE4200D93E462068CF
:101F10003246414600F0B6FAA3689B1BA3602368D3
:101F2000334423600020DBE72A4600F0A5FB064689
:101F30000028E1D12169504600F0BEFAC7E7000051
:101F40002DE9F04F98468B891B069DB007460D463C
:101F500014460ED50B6963B9402100F019FB2860C7
:101F6000286120B90C233B604FF0FF30D1E04023C3
:101F70006B610023099320238DF82930CDF80C8064
:101F80003023DFF8A8818DF82A304FF0010923466D
:101F90009A4613F8012B0AB1252AF9D1BAEB040BA2
:101FA0000BD05B46224629463846FFF76DFF0130CD
:101FB00000F0AA80099A5A4409929AF80030002B3E
:101FC00000F0A28000234FF0FF32CDE905230AF193
:101FD000010A049307938DF853301A93544605224F
:101FE00014F8011B5148FEF7F3F8049AD8B9D0064B
:101FF00044BF20238DF85330110744BF2B238DF8A5
:1020000053309AF800302A2B15D0079A54460020F6
:102010004FF00A0C214611F8013B303B092B4ED9F9
:10202000B0B1079214E0A0EB080309FA03F31343DD
:102030000493A246D2E7039B191D1B680391002B52
:10204000BBBF5B4242F0020207930793B8BF049202
:1020500023782E2B0CD163782A2B35D1039B1A1DA4
:102060001B680392002BB8BF4FF0FF330234059377
:10207000DFF8C8A0217803225046FEF7A9F840B146
:102080004023A0EB0A0003FA00F0049B0343013451
:10209000049314F8011B26488DF828100622FEF739
:1020A00097F8002838D0234B1BBB039B073323F042
:1020B000070308330393099B3344099367E70CFB39
:1020C00002320C460120A5E700230134059319468E
:1020D0004FF00A0C204610F8012B303A092A03D998
:1020E000002BC5D00591C3E70CFB01210446012359
:1020F000F0E703AB00932A460F4B04A93846AFF331
:102100000080421C0646D6D1AB895B063FF52CAF5A
:1021100009981DB0BDE8F08F03AB00932A46064B2B
:1021200004A9384600F07AF8EBE700BF78270008EA
:102130008227000800000000891E00087E27000892
:102140002DE9F047164699468A680B69DDF820802C
:102150009342B8BF1346336091F8432007460C46BC
:102160000AB1013333602368990642BF33680233F2
:102170003360256815F0060506D104F1190AE368F5
:1021800032689B1AAB4226DC94F84320131E226867
:1021900018BF012392062BD404F143024946384666
:1021A000C04701301ED02368E568326803F006039B
:1021B000042B08BFAD1AA36822690CBF25EAE57598
:1021C00000259342C4BF9B1AED1800261A34B5426D
:1021D0001AD1002008E00123524649463846C0473C
:1021E000013003D14FF0FF30BDE8F0870135C6E77D
:1021F000E1185A1C302081F84300224494F845101D
:1022000082F843100233C7E7012322464946384685
:10221000C0470130E6D00136D9E700002DE9FF477D
:102220000F7E0C9D782F914680460C469A4601F110
:10223000430207D8622F0AD8002F00F0D880582F09
:1022400000F0A38004F1420584F842703AE0A7F15F
:102250006303152BF6D801A151F823F0B52200082D
:10226000C92200084522000845220008452200082E
:1022700045220008C922000845220008452200081E
:102280004522000845220008D5230008F92200084D
:10229000B72300084522000845220008F72300085C
:1022A00045220008F92200084522000845220008BE
:1022B000BF2300082B681A1D1B682A6004F1420521
:1022C00084F842300123A3E020682968060601F162
:1022D00004030AD50E682B60002E03DA2D23764204
:1022E00084F843305E480A2319E00E682B6010F032
:1022F000400F18BF36B2EFE72B682068191D296020
:10230000010601D51E6802E04606FBD51E8854482A
:102310006F2F0CBF08230A23002184F8431065683F
:10232000A560002DA2BF216821F0040121600EB933
:10233000002D4DD01546B6FBF3F103FB1167C75DC9
:1023400005F8017D3746BB420E46F4D9082B0BD168
:102350002368DE0708D5236961689942DEBF302310
:1023600005F8013C05F1FF35521B2261CDF800A0B4
:102370004B4603AA21464046FFF7E2FE01304CD10E
:102380004FF0FF3004B0BDE8F087354881F8457064
:102390002968236851F8046B29601D0614D5DF07EE
:1023A00044BF43F0200323601EB9236823F02003B9
:1023B00023601023B0E7236843F0200323607823D1
:1023C000284884F84530E3E7590648BFB6B2E6E747
:1023D0001546BBE72B6826686169181D286035061D
:1023E0001B6801D5196002E07006FBD51980002337
:1023F00023611546BAE72B681A1D2A601D686268BA
:1024000000212846FDF7E4FE08B1401B60606368C8
:102410002361002384F84330A8E723692A4649460C
:102420004046D0470130ABD023689B0713D4E06807
:10243000039B9842B8BF1846A4E701233246494699
:102440004046D04701309BD00135E36803995B1AC1
:10245000AB42F2DCEBE7002504F11906F5E700BF1B
:10246000892700089A2700080A44914200F1FF33A7
:1024700000D1704710B511F8014B03F8014F91429C
:10248000F9D110BD884210B501EB020402D9844293
:10249000234607D8431EA14208D011F8012B03F8A8
:1024A000012FF8E7024401468A4200D110BD13F81B
:1024B000014D02F8014DF7E737B5002944D051F836
:1024C000043C0190002BA1F10404B8BFE41800F013
:1024D00013F91E4A0198136833B96360146003B09E
:1024E000BDE8304000F00EB9A34208D92568611953
:1024F0008B4201BF19685B6849192160EDE71A46F4
:102500005B680BB1A342FAD911685518A5420BD1EB
:10251000246821445418A3421160E0D11C685B6810
:10252000536021441160DAE702D90C230360D6E737
:10253000256861198B4204BF19685B68636004BF3A
:10254000491921605460CAE703B030BD2C02002055
:1025500070B50E4E0C463168054611B900F0BCF856
:1025600030602146284600F0B7F8431C0AD0C41C4E
:1025700024F00304A04207D0211A284600F0ACF84A
:10258000013001D14FF0FF34204670BD30020020F1
:102590002DE9F041CD1C25F0030508350C2D38BF81
:1025A0000C25002D074601DBA94205D90C233B6011
:1025B00000263046BDE8F0812E4E00F09DF83368CD
:1025C0001C4634BB29463846FFF7C2FF431C04466D
:1025D0004DD134682646002E40D123683146384616
:1025E00004EB030800F078F880453AD12168033500
:1025F0006D1A25F0030508350C2D38BF0C2529462A
:102600003846FFF7A5FF01302BD023682B44236009
:102610000EE02268521B1ED40B2A16D96119A34260
:10262000256018BF5960636808BF316062514B6014
:10263000384604F10B0600F065F826F00706231D66
:10264000F21AB6D09B1BA350B3E76268A3420CBF3B
:1026500032605A60ECE723466468B2E73446766835
:10266000B9E70C233B60384600F04CF8A1E7256041
:10267000DEE700BF2C0200202DE9F0418046144621
:102680000E4621B9BDE8F0411146FFF781BF2AB9D6
:10269000FFF712FF25462846BDE8F08100F038F824
:1026A0008442074602D8B4EB500F12D82146404668
:1026B000FFF76EFF05460028EDD0BC4222463146AA
:1026C00028BF3A46FFF7D0FE31464046FFF7F4FEFA
:1026D000E1E73546DFE7000038B5064D0023044644
:1026E00008462B6000F01EF8431C02D12B6803B192
:1026F000236038BD34020020014800F011B800BF4B
:1027000038020020014800F00CB800BF3802002059
:1027100051F8043C181F002BBCBF0B58C018704761
:1027200070477047044A05491368002B08BF0B46E1
:1027300018441060184670473C02002040020020F8
:10274000F8B500BFF8BC08BC9E467047F8B500BF9E
:08275000F8BC08BC9E4670476E
:1027580048454C4C4F0A00000000000000000000F3
:10276800010203040607080900000000010203042F
:10277800232D302B2000686C4C0065666745464762
:1027880000303132333435363738394142434445E5
:102798004600303132333435363738396162636454
:0427A8006566000062
:0827AC00F4DAFF7F01000000D8
:0427B400B501000863
:0427B8009101000883
:1027BC0001000000100000000024F40010000020B4
:1027CC0000000000000000000000000000000000FD
:1027DC0000000000000000000000000000000000ED
:1027EC0000000000000000000000000000000000DD
:1027FC0000000000000000000000000000000000CD
:10280C0000000000000000000000000000000000BC
:10281C0000000000000000000000000000000000AC
:0400000508001D9D35
:00000001FF
